S01700004763634170706C69636174696F6E312E737265635B
S11300000C9434000C9451000C9451000C946E0028
S11300100C9451000C9451000C9451000C94510018
S11300200C9451000C9451000C9451000C94510008
S11300300C9451000C9451000C9451000C945100F8
S11300400C9451000C9451000C9451000C945100E8
S11300500C9451000C9451000C9451000C945100D8
S11300600C9451000C94510011241FBECFEFD8E022
S1130070DEBFCDBF11E0A0E0B1E0E4E6F2E002C0F3
S113008005900D92A431B107D9F721E0A4E1B1E0C4
S113009001C01D92A831B207E1F70E94E2000C945E
S11300A030010C940000F89481E08093680086E0AD
S11300B080936B0078940895880F991FFC01E05099
S11300C0FF4F80818BB98FE39CE90197F1F700C062
S11300D0000095B181E0892785B908951F920F9298
S11300E00FB60F9211248F939F93AF93BF931999D7
S11300F02CC08091140190911501A0911601B0912A
S11301001701892B8A2B8B2B69F483E690E0A0E0FE
S1130110B0E08093140190931501A0931601B0935D
S1130120170113C08091140190911501A09116013B
S1130130B09117010197A109B1098093140190931B
S11301401501A0931601B09317011A9929C0809143
S1130150140190911501A0911601B09117018336F5
S11301609105A105B10549F41092140110921501ED
S1130170109216011092170113C0809114019091EE
S11301801501A0911601B09117010196A11DB11D91
S11301908093140190931501A0931601B093170155
S11301A0BF91AF919F918F910F900FBE0F901F90B1
S11301B018958FEF8AB980E48BB981E084B986E021
S11301C085B908950E94D9000E9453000F2EFAE0C9
S11301D0CF2ED12CE12CF12CF02D609114017091D3
S11301E0150180911601909117018090140190904F
S11301F01501A0901601B0901701A70196010E9465
S11302000E01CB010E945C00C501B401A701960157
S11302100E940E01C9010E945C00DFCFA1E21A2EE8
S1130220AA1BBB1BFD010DC0AA1FBB1FEE1FFF1F96
S1130230A217B307E407F50720F0A21BB30BE40BE6
S1130240F50B661F771F881F991F1A9469F760952D
S11302507095809590959B01AC01BD01CF010895E7
S1070260F894FFCF3C
S113026440007900240030001900120002007800D4
S10702740000100072
S9030000FC
