S01700004763634170706C69636174696F6E312E737265635B
S11300000C9434000C9451000C9451000C946E0028
S11300100C9451000C9451000C9451000C94510018
S11300200C9451000C9451000C9451000C94510008
S11300300C9451000C9451000C9451000C945100F8
S11300400C9451000C9451000C9451000C945100E8
S11300500C9451000C9451000C9451000C945100D8
S11300600C9451000C94510011241FBECFEFD8E022
S1130070DEBFCDBF11E0A0E0B1E0E0E8F2E002C0F5
S113008005900D92A431B107D9F721E0A4E1B1E0C4
S113009001C01D92A831B207E1F70E94E2000C945E
S11300A03E010C940000F89481E08093680086E09F
S11300B080936B0078940895880F991FFB01E80FD3
S11300C0F91F80818BB98FE39CE90197F1F700C098
S11300D0000095B181E0892785B908951F920F9298
S11300E00FB60F9211248F939F93AF93BF931999D7
S11300F029C08091140190911501A0911601B0912D
S1130100170183369105A105B10549F41092140134
S113011010921501109216011092170113C08091CC
S1130120140190911501A0911601B0911701019647
S1130130A11DB11D8093140190931501A093160184
S1130140B09317011A992CC0809114019091150154
S1130150A0911601B0911701892B8A2B8B2B69F47E
S113016083E690E0A0E0B0E0809314019093150141
S1130170A0931601B093170113C0809114019091BC
S11301801501A0911601B09117010197A109B109B8
S11301908093140190931501A0931601B093170155
S11301A0BF91AF919F918F910F900FBE0F901F90B1
S11301B018958FEF8AB980E48BB981E084B986E021
S11301C085B908950E94D9000E9453000F2EFAE0C9
S11301D04F2E512C612C712CF02D609114017091D3
S11301E015018091160190911701A30192010E94BB
S11301F01C016B017C018090140190901501A0906A
S11302001601B090170160E071E0C6010E945C0025
S11302100D2C000CEE08FF08C501B4016C197D0912
S11302208E099F09A30192010E941C0160E071E004
S1130230C9010E945C00D1CFA1E21A2EAA1BBB1BEC
S1130240FD010DC0AA1FBB1FEE1FFF1FA217B3079E
S1130250E407F50720F0A21BB30BE40BF50B661FB4
S1130260771F881F991F1A9469F760957095809578
S113027090959B01AC01BD01CF010895F894FFCF87
S113028040007900240030001900120002007800B8
S10702900000100056
S9030000FC
