S00F0000506F6C6C696E672E7372656340
S11300000C9434000C9451000C9451000C94510045
S11300100C9451000C9451000C9451000C94510018
S11300200C9451000C9451000C9451000C94510008
S11300300C9451000C9451000C9451000C945100F8
S11300400C9451000C9451000C9451000C945100E8
S11300500C9451000C9451000C9451000C945100D8
S11300600C9451000C94510011241FBECFEFD8E022
S1130070DEBFCDBF11E0A0E0B1E0E6ECF1E002C0EC
S113008005900D92A230B107D9F721E0A2E0B1E0CA
S113009001C01D92A630B207E1F70E9459000C94EA
S11300A0E1000C9400001AB88FEF8BB984B915B82D
S11300B008950E94530021E030E061E052E04A9943
S11300C01AC08091000190910101892B59F480910B
S11300D002019091030141E08427909303018093EE
S11300E0020101C063B91092010110920001309322
S11300F00501209304014B991AC08091000190914D
S11301000101019759F48091020190910301E1E00A
S11301108E27909303018093020101C053B9309359
S113012001012093000110920501109204018091B5
S11301300201909103010197F9F4809104019091D7
S1130140050145B1F90102C0EE0FFF1F8A95E2F7E0
S1130150CF0180959095842385B980910001909179
S1130160010145B1F90102C0EE0FFF1F8A95E2F7C4
S1130170CF01842785B91BC08091040190910501AA
S113018045B1F90102C0EE0FFF1F8A95E2F7CF01D6
S113019080959095842385B9809100019091010107
S11301A0F90102C0EE0FFF1F8A95E2F7E5B9FFEFF0
S11301B043EC89E0F15040408040E1F700C000008A
S10901C07ECFF894FFCF8E
S10501C6010032
S9030000FC
