:100000000C9434000C9456000C9484000C9446001C
:100010000C9446000C9446000C9446000C94460048
:100020000C9446000C9446000C9446000C94460038
:100030000C9446000C9446000C9446000C94460028
:100040000C9446000C9446000C9446000C94460018
:100050000C9446000C9446000C9446000C94460008
:100060000C9446000C94460011241FBECFEFD8E03C
:10007000DEBFCDBF21E0A0E0B1E001C01D92A43001
:10008000B207E1F70E94B2000C94E0000C9400006B
:100090008FEF84B915B81AB88CE08BB9F89483E067
:1000A0008DBB8AE080936900789408951F920F9227
:1000B0000FB60F9211248F939F938091020190911C
:1000C0000301019791F48091000190910101892B26
:1000D00039F481E090E0909301018093000107C022
:1000E000109201011092000102C082E085B981E006
:1000F00090E090930301809302019F918F910F9064
:100100000FBE0F901F9018951F920F920FB60F926F
:1001100011248F939F938091020190910301029784
:1001200091F48091000190910101892B39F481E0D3
:1001300090E0909301018093000107C010920101AB
:100140001092000102C084E085B982E090E09093B3
:100150000301809302019F918F910F900FBE0F902A
:100160001F9018950E94480021E030E08091000126
:1001700090910101019779F480910201909103011E
:1001800045B1B90102C0660F771F8A95E2F7CB012E
:10019000842785B90BC08091020190910301A901C8
:1001A00002C0440F551F8A95E2F745B95FEF63EC33
:1001B00079E0515060407040E1F700C00000D6CFB8
:0401C000F894FFCFE1
:00000001FF
